:1000000007C1000021C100001FC100001DC1000088
:100010001BC1000019C1000017C1000015C100007C
:1000200013C1000011C100000FC100000C94680A48
:100030000C94100B09C1000007C1000005C10000AD
:1000400003C1000001C10000FFC00000FDC00000AE
:10005000FBC00000F9C00000F7C00000F5C00000C0
:10006000F3C00000F1C00000EFC00000EDC00000D0
:10007000EBC000001A081C0838084508F808F80802
:100080008808CA08BD08F408CD08CF081408240958
:1000900046092C0A46092C0A8809AB092C0AFD09D5
:1000A0000F0A434D44204552524F520053594E546B
:1000B0004158204552524F5200454E42474F4553FA
:1000C000594E4F53434F55545052544D494E4D4144
:1000D000584B4254444956415554443132523030C1
:1000E0005230315230325230334C434B004C4D4B36
:1000F0004C4D584441434C454456434F4750534957
:100100004F535354534144460052454750494E5370
:100110004554534156444546494E46564552485724
:10012000495253544C44455354452525250030032A
:100130004C0055004600410020005500530042008D
:100140002D005200530032003300320020004100E5
:100150006400610070007400650072000000180304
:100160004400650061006E002000430061006D00E6
:1001700065007200610000000403090409023E00EA
:10018000020100C03209040000010202010005243E
:10019000001001042402060524060001070582035D
:1001A0000800FF09040100020A000000070504021C
:1001B000200005070583022000051201100102003E
:1001C0000008EB034B2000000102DC01436C6F636D
:1001D0006B54616D6572322F556D434C4B76312EE9
:1001E000302053573D322E30204150493D3220526D
:1001F00045563D302E303031004F4B004261642077
:1002000074756E696E672072616E6765000D0A0015
:1002100011241FBECFEFD4E0DEBFCDBF11E0A0E0C0
:10022000B1E0E2E0F9E102C005900D92A432B1071D
:10023000D9F711E0A4E2B1E001C01D92A33FB107DC
:10024000E1F725D00C947F0CDBCE1092CD0083E338
:100250008093CC0086E08093CA0088E18093C90037
:10026000089584B7877F84BF88E10FB6F8948093A0
:100270006000109260000FBE90E080E80FB6F89426
:1002800080936100909361000FBE0C94830B259ABC
:100290002D9AE7DF6ED59CD68BE691E0E6D186E21B
:1002A00091E0E3D1D2DF789480912401882369F131
:1002B00080E091E0D2D2182FC0E0D0E01C1781F08E
:1002C00080E091E0EFD2853219F410922401ECCF56
:1002D0009091C80095FFFCCF8093CE002196EECF81
:1002E0008091EA01843009F059C088EE93E02091B2
:1002F000C80027FD04C001970097C9F74FC060915F
:10030000CE0080E091E049D249C080E091E0A5D2E2
:10031000082FC0E0D0E00C17D9F08091AF018034F5
:10032000B9F080E091E0BED2182F8FEF810F8E3FA1
:1003300020F021961D3079F706C0612F8BE691E001
:10034000A6D11A30B1F7809125018F5F80932501E6
:1003500080912501811116C08091AF01803491F404
:100360008BE691E0CAD10EC052D0882381F04FD6DF
:10037000811103C082EA90E027D680912501815047
:1003800080932501809125018111EECF03C08CEA75
:1003900090E0F2CF8091EA01843031F080E091E08A
:1003A0004DD20E94460A80CF80916A018823B1F322
:1003B00086E291E0A2D1682F80E091E0EED1F4CF07
:1003C00080E091E09DC280E091E0C2D1811102C045
:1003D0002D98089580E895E2A0E0B0E080931401A4
:1003E00090931501A0931601B093170108952D9ACB
:1003F00008952D980895982F81E0992331F09D302C
:1004000029F09A3019F080E00895089508954F92E8
:100410005F926F927F928F929F92AF92BF92CF9294
:10042000DF92EF92FF92CF93DF931092B001109280
:10043000B1011092B2011092B3011092B401109266
:10044000B5011092B601D0E08BE691E056D1C82FED
:100450008032D1F38C3221F4DF5FD430A8F3C0C0F6
:10046000CADF8111BFC0D33009F440C08BE691E0F0
:1004700044D1F82E8BE691E040D1E82E8F2DBBDFE2
:100480008111AEC08E2DB7DF8111AAC0D13029F005
:10049000D23031F429EB30E005C02DEE30E002C05F
:1004A00029E031E091E0F9018491319644912D5F8A
:1004B0003F4FF9013197E491882341F08C1304C038
:1004C0004F1102C0EE1521F09F5FEDCF8FEF01C0FD
:1004D000892FD13029F0D23031F08093B001B3CFE1
:1004E0008093B101B1CF8093B201AECF8C2F8F7DBD
:1004F0008835B1F5D8E08BE691E0FFD0C82F80EDCC
:100500008C0F8A3068F08FE98C0F863010F4C75555
:1005100008C08FEB8C0F863008F05DC0C75301C058
:10052000C82F4091B3015091B4016091B501709111
:10053000B60184E0440F551F661F771F8A95D1F7D7
:100540004C2B4093B3015093B4016093B501709369
:10055000B601D15081F68BE691E0CFD0C82F3BC0D9
:1005600080ED8C0F8A30B8F590E0A0E0B0E0809389
:10057000B3019093B401A093B501B093B601D9E053
:100580008BE691E0BAD0C82F80ED8C0F8A3018F539
:10059000482E512C612C712C6091B3017091B401E3
:1005A0008091B5019091B6012AE030E040E050E042
:1005B0000E94C10B49015A01480C591C6A1C7B1C42
:1005C0004092B3015092B4016092B5017092B601AD
:1005D000D150B1F6C0CF8C2F0EDF91E0811103C056
:1005E00090E001C091E0892FDF91CF91FF90EF90D3
:1005F000DF90CF90BF90AF909F908F907F906F9043
:100600005F904F900895292F33272230310559F0FC
:100610002330310569F021303105F9F482E190E0B1
:100620002AEB31E01EC08EE390E02CE731E019C0E8
:1006300099278130910541F08230910541F0892B55
:1006400061F4E8E7F1E005C0EEE5F1E002C0EEE2BA
:10065000F1E0849190E09F0104C080E090E020E010
:1006600030E0FA013183208308952FB7F894FC011C
:10067000E05CFF4F91838083FC01EE5BFF4F918331
:100680008083FC01EC5BFF4F10822FBF08954FB7B2
:10069000F894DC01AC5BBF4F2C91FC01E05CFF4F98
:1006A0002034A9F4DC01AE5BBF4F2D913C91119732
:1006B0002F5F3F4F11963C932E932D913C911197B4
:1006C0002E173F0739F411969C938E9303C02C91FB
:1006D0002F5F2C93A081B1816C93208131812F5F9A
:1006E0003F4F31832083208131812E173F0711F046
:1006F0004FBF089591838083FBCFCF93DF936FB774
:10070000F894DC01AC5BBF4F2C91211103C06FBF8B
:1007100080E01BC0FC01EE5BFF4FC081D18178817E
:10072000208131812F5F3F4F318320832C912150D5
:100730002C93408151819C01205C3F4F421753070D
:1007400011F4918380836FBF872FDF91CF9108953C
:10075000CF93DF93EC01FC0170968BE0DF011D92DB
:100760008A95E9F782E08C83898783E08E8761E050
:10077000CE010196AAD1882361F061E0CE010696F0
:10078000A4D1882331F061E0CE010B96DF91CF91A7
:100790009CC180E0DF91CF910895CF93C62F209127
:1007A000EA012430F1F4FC0144895589668977898E
:1007B000452B462B472BA9F081818F708093E90050
:1007C0008091E80085FF04C0C093F10080E00AC07A
:1007D0008091E8008E778093E800D4D18823A1F33C
:1007E00001C082E0CF9108952091EA01243021F5E3
:1007F000FC014489558966897789452B462B472B0F
:10080000D9F081818F708093E9008091F200882374
:1008100089F09091E8008091E8008E778093E8005D
:1008200095FD08C0AFD1811108C08091E8008E7796
:100830008093E80080E0089582E008952091EA0125
:10084000243051F4FC014489558966897789452B08
:10085000462B472B09F0C8CF08952091EA01243098
:10086000D1F4FC014489558966897789452B462B4B
:10087000472B89F086818F708093E9008091E80092
:1008800082FF09C08091F200811108C08091E800C8
:100890008B778093E80080E090E008958091F200EB
:1008A00090E008952091EA01243019F08FEF9FEF36
:1008B0000895FC014489558966897789452B462B23
:1008C000472BA1F386818F708093E9008091E80027
:1008D00082FFECCF8091F200882321F02091F1007B
:1008E00030E002C02FEF3FEF8091F200811105C090
:1008F0008091E8008B778093E800C90108950895FE
:10090000CF93DF93EC018091E80083FFA6C088813C
:1009100090E02091EF013091F0012817390709F09C
:100920009CC08091EC01813261F020F4803209F4A6
:100930003EC093C0823209F46CC0833209F47DC09A
:100940008CC08091EB01813A09F087C08091E8006A
:10095000877F8093E8008091E80080FFFCCF4C897E
:100960005D896E897F894093F100BB27A72F962F61
:10097000852F8093F100CB01AA27BB278093F1003C
:10098000472F5527662777274093F100888D80935E
:10099000F100898D8093F1008A8D8093F100809120
:1009A000E8008E778093E800DF91CF91CAC08091F4
:1009B000EB01813209F051C08091E800877F80937C
:1009C000E8008091E80082FD05C08091EA01811174
:1009D000F8CF43C03091F1002091F1009091F100E7
:1009E0008091F1003C8B2D8B9E8B8F8B8091F10041
:1009F000888F8091F100898F8091F1008A8F80919A
:100A0000E8008B778093E8009CD0CE01DF91CF91F6
:100A100076CF8091EB01813201F58091E800877FEC
:100A20008093E8008ED08091ED019091EE01998B3A
:100A3000888BCE01DF91CF9162CF8091EB01813223
:100A400061F48091E800877F8093E8007AD060911C
:100A5000ED01CE01DF91CF9152CFDF91CF9108957B
:100A6000982F953058F59093E900981739F07091C8
:100A7000EC002091ED005091F00003C0242F762F60
:100A800050E021FF19C03091EB003E7F3093EB0026
:100A90003091ED003D7F3093ED003091EB003160FF
:100AA0003093EB007093EC002093ED005093F00036
:100AB0002091EE0027FF07C09F5FD3CF8F708093F8
:100AC000E90081E0089580E008950F931F93CF938C
:100AD000DF93062FEC0110E0101769F1988199233C
:100AE00039F12C81E981FA816B81892F8F708530F2
:100AF00010F080E021C0223010F056E001C052E03A
:100B000028E030E040E02E173F0720F44F5F220F2F
:100B1000331FF9CF4295407F452B991F9927991F85
:100B20006295660F660F607C692B9ADF882309F354
:100B30001F5F2596D1CF81E0DF91CF911F910F915B
:100B400008958091EB0187FD05C08091E80080FF4A
:100B50000EC012C08091E80082FD05C08091EA01BC
:100B60008111F8CF08958091E8008B7708C08091BB
:100B7000EA018111EACF08958091E8008E77809391
:100B8000E80008958091E4009091E50045E6209109
:100B9000EC0020FF21C02091E80020FD21C0209121
:100BA000EA01222389F0253089F02091EB0025FD10
:100BB0000FC02091E4003091E5002817390739F380
:100BC000415041F0C901E3CF82E0089583E00895E8
:100BD00081E0089584E008952091E80022FFDFCFAE
:100BE00080E008952091F1013091F2012617370736
:100BF00048F06115710539F42091E8002E772093B3
:100C0000E80001C0B90120E061157105D1F1309112
:100C1000EA01332309F441C0353009F440C0309172
:100C2000E80033FD38C03091E80032FF06C0809103
:100C3000E80082FF29C080E008953091E80030FF8D
:100C4000E3CF2091F20030E0FC01281B390BCF01EB
:100C5000820F931F6115710549F08830910530F4BA
:100C600081918093F10061507109F1CF21E00897E3
:100C700009F020E08091E8008E778093E800CF01B2
:100C8000C3CF2111C4CFD3CF8091EA01882329F0AB
:100C9000853069F604C081E0089582E0089583E01C
:100CA00008952091F1013091F2012617370748F09D
:100CB0006115710539F42091E8002E772093E80042
:100CC00001C0B90120E061157105D9F13091EA0147
:100CD000332309F442C0353009F441C03091E800B3
:100CE00033FD39C03091E80032FF06C08091E80042
:100CF00082FF2AC080E008953091E80030FFE3CF02
:100D00002091F20030E0FC01281B390BC9018E0F45
:100D10009F1F6115710551F08830910538F4849159
:100D20008093F100319661507109F0CF21E008976E
:100D300009F020E08091E8008E778093E800CF01F1
:100D4000C2CF2111C3CFD2CF8091EA01882329F0ED
:100D5000853061F604C081E0089582E0089583E063
:100D6000089590E59CBD8EBD0DB407FEFDCF8EB5F8
:100D70000895259A2D98549A269A2E98559A5D9AF8
:100D800084B1876084B9289A80E58CBD0895CF939B
:100D9000DF9300D01F92CDB7DEB75D982B834A83D7
:100DA0006983DFDF6981862FDCDF4A81842FD9DF09
:100DB0002B81822FD6DF5D9A0F900F900F90DF91DD
:100DC000CF910895CF93DF931F92CDB7DEB75C9A92
:100DD0005C9A5C986983C5DF6981862F0F90DF91EB
:100DE000CF91BFCFF894682F86E291E050DC7894E1
:100DF00008950F931F93CF93DF93EC01613F30F081
:100E00008FE3DF91CF911F910F91ECCF862F90E070
:100E100063E070E081D48C0F9D1F8C010D5F1F4F2C
:100E2000EC01FE018491DEDF2196C017D107C9F7DE
:100E3000DF91CF911F910F9108956091B0016623CA
:100E400021F0615089E091E0D4DF8CE2CBDF60914A
:100E5000B101662321F061508DEE90E0CADF8CE293
:100E6000C1DF6091B201662321F0615089EB90E00F
:100E7000C0DF8CE2B7CF4F925F926F927F928F92DA
:100E80009F92AF92BF92CF92DF92EF92FF920F9319
:100E90001F93CF93DF93CDB7DEB72C970FB6F8949F
:100EA000DEBF0FBECDBF4B015C010AE010E0C12CDC
:100EB0008AECD82E8AE9E82E8BE3F82E9AE0492EA8
:100EC000512C612C712CC501B401A701960135D4B8
:100ED00080E3820F29873A874B875C8783DF2985E8
:100EE0003A854B855C85CA01B90177278827992700
:100EF000A701960146D429833A834B835C836D8393
:100F00007E838F83988789819A81AB81BC81881A7F
:100F1000990AAA0ABB0AC701B601A30192010DD41E
:100F200069017A01015011090115110561F62C962C
:100F30000FB6F894DEBF0FBECDBFDF91CF911F91EA
:100F40000F91FF90EF90DF90CF90BF90AF909F9068
:100F50008F907F906F905F904F90089585E390E021
:100F60009ED460932001709321018093220190937D
:100F7000230181E390E093D460931C0170931D01E1
:100F800080931E0190931F0180E390E080D48093B2
:100F9000D6018EE290E088D49093DC018093DB014F
:100FA0008DE290E074D48093CB010895CF93DF93CA
:100FB000FC018491EF012196882319F013DFFE01D3
:100FC000F8CFDF91CF910895F1DF8DE092E0EECF81
:100FD000549A5C9A80E390E05AD48093D601882397
:100FE00051F0BCDF2FE788E391E021508040904032
:100FF000E1F700C000000895811520E1920728F470
:10100000682F892FDFDE81E0089580E00895CF9377
:10101000DF938091B00190E08D30910508F0E8C039
:10102000FC01E65CFF4FFFC38091240191E089271A
:101030008093240181E0DDC08091B101833069F0AB
:10104000893009F0D5C02091B3014091B40160917D
:10105000B5018091B6019BDEC7C08091B2018C3092
:1010600009F0C6C06091B3018091B401ABDEBCC091
:101070008091B101843009F0BBC08091B301882315
:1010800011F02D9AB1C02D98AFC08091B10183307D
:10109000E1F0863099F18111ABC08091B2018823D3
:1010A00051F1853009F0A4C08091B3019091B40151
:1010B000A091B501B091B60180931C0190931D01E0
:1010C000A0931E01B0931F0116C08091B201882326
:1010D00059F08C3009F08CC08091B3019091B4012B
:1010E0009093DC018093DB018091DB019091DC0126
:1010F00083DF811179C08CEF91E078C08091B201DB
:101100008B3009F075C08091B3018093CB016CC026
:101110008091B101882349F0833009F069C08DDEE8
:101120006091DB017091DC0121C08091B2018530BA
:1011300079F08B30B9F0843009F05AC07EDE6091CE
:10114000200170912101809122019091230110C012
:1011500074DE60911C0170911D0180911E019091BF
:101160001F0106C06ADE6091D60170E080E090E069
:1011700082DE8DE092E01ADF5DCFC0E0D0E0CE01EC
:1011800086D38823B1F32EDE219680E0C436D807BB
:10119000B1F7EFCF8CEC91E029C0E0DE25C04091A3
:1011A000200150912101609122017091230185E37A
:1011B00090E08DD340911C0150911D0160911E0162
:1011C00070911F0181E390E082D36091D60180E3AA
:1011D00090E06FD36091DB018EE290E06AD3609182
:1011E000CB018DE290E065D389EF91E0EDDE22CF77
:1011F00080E0DF91CF9108950F931F93CF93DF93FA
:10120000CDB7DEB7AA970FB6F894DEBF0FBECDBF3D
:10121000EBEEF1E08091F100819321E0E33FF207F2
:10122000C9F7CED88091E80083FF16C12091EB0169
:101230003091EC01832F90E08A30910508F00CC1C9
:10124000FC01E95BFF4FEFC2203881F0223809F042
:1012500003C18091EF018F708093E9008091EB00D2
:1012600085FB882780F91092E90006C08091E7018C
:101270009091E801911182609091E800977F90939E
:10128000E8008093F1001092F100C2C0822F8D7FA0
:1012900009F0E2C0222319F0223061F0DDC0809114
:1012A000ED01813009F0D8C0333009F080E080933F
:1012B000E80128C08091ED01811124C02091EF0147
:1012C0002F7009F4C9C02093E9008091EB0080FFE2
:1012D00019C08091EB00333011F4806211C080613D
:1012E0008093EB0081E090E0022E01C0880F0A9409
:1012F000EAF78093EA001092EA008091EB008860A0
:101300008093EB001092E9008091E800877F83C012
:101310002111A2C01091ED011F770FB7F8948091B1
:10132000E800877F8093E8000CDC8091E80080FF74
:10133000FCCF8091E3008078812B8093E30080686C
:101340008093E300112311F083E001C082E08093D9
:10135000EA010FBF81C02058223008F07DC0809183
:10136000ED019091EE018C3D23E0920771F583E051
:101370008A838AE289834FB7F894DE01139620E0CE
:101380003EE051E2E32FF0E050935700E49120FF5C
:1013900003C0E295EF703F5FEF708E2F90E0EA3070
:1013A00010F0C79601C0C0968D939D932F5F243196
:1013B00049F74FBF8091E800877F8093E8006AE299
:1013C00070E0CE0101960EDC12C0AE014F5F5F4FA0
:1013D0006091EF0118D9009709F43EC02091E80010
:1013E000277F2093E800BC0189819A815ADC809193
:1013F000E8008B778093E8002FC0203869F5809152
:10140000E800877F8093E8008091E6018093F100F7
:101410008091E8008E778093E80093DB1DC0211156
:101420001BC09091ED019230B8F48091E800877F65
:101430008093E8009093E60184DB8091E6018111BE
:1014400004C08091E30087FF02C084E001C081E016
:101450008093EA010E94E3018091E80083FF0AC0C3
:101460008091EB0080628093EB008091E800877FA1
:101470008093E800AA960FB6F894DEBF0FBECDBFEA
:10148000DF91CF911F910F9108950895CF9380918F
:10149000EA018823A9F08091E9008F709091EC0017
:1014A00090FF02C090E801C090E0C92FC82B1092B5
:1014B000E9008091E80083FD9FDECF70C093E900D2
:1014C000CF9108951092E20008951092E1000895DE
:1014D0001F920F920FB60F9211242F933F934F93A9
:1014E0005F936F937F938F939F93AF93BF93EF938C
:1014F000FF938091E10082FF0AC08091E20082FFA9
:1015000006C08091E1008B7F8093E100BEDF809177
:10151000E10080FF18C08091E20080FF14C080913C
:10152000E2008E7F8093E2008091E20080618093F0
:10153000E2008091D80080628093D80019BC10929C
:10154000EA010E94F9018091E10084FF2DC08091A1
:10155000E20084FF29C019BC82E089BD09B400FE05
:10156000FDCF8091D8008F7D8093D8008091E100DD
:101570008F7E8093E1008091E2008F7E8093E20075
:101580008091E20081608093E2008091E601811108
:1015900004C08091E30087FF02C084E001C081E0C5
:1015A0008093EA010E94F7018091E10083FF27C048
:1015B0008091E20083FF23C08091E100877F8093C8
:1015C000E10082E08093EA011092E6018091E1005F
:1015D0008E7F8093E1008091E2008E7F8093E20015
:1015E0008091E20080618093E20042E060E080E070
:1015F00037DA8091F00088608093F00046DFFF9139
:10160000EF91BF91AF919F918F917F916F915F917A
:101610004F913F912F910F900FBE0F901F901895F3
:101620001F920F920FB60F9211242F933F934F9357
:101630005F936F937F938F939F93AF93BF93CF935A
:10164000EF93FF93C091E900CF708091EC0010926E
:10165000E9008091F000877F8093F0007894CCDDE2
:101660001092E9008091F00088608093F000C093B0
:10167000E900FF91EF91CF91BF91AF919F918F9131
:101680007F916F915F914F913F912F910F900FBE7E
:101690000F901F90189516DF18DF8091D8008F7774
:1016A0008093D8008091D80080688093D800809182
:1016B000D8008F7D8093D80019BC82E089BD09B421
:1016C00000FEFDCF1092EA011092E6011092E801AF
:1016D0001092E70142E060E080E0C2D98091E10031
:1016E0008E7F8093E1008091E20081608093E20030
:1016F0008091E20088608093E2008091E0008E7F1C
:101700008093E0000895E3E6F0E080818E7F80839F
:1017100081E08093E901BFCF0024552704C0080E63
:10172000591F880F991F009729F076956795B8F390
:101730007105B9F7802D952F0895A1E21A2EAA1BE5
:10174000BB1BFD010DC0AA1FBB1FEE1FFF1FA21771
:10175000B307E407F50720F0A21BB30BE40BF50B6E
:10176000661F771F881F991F1A9469F760957095F7
:10177000809590959B01AC01BD01CF0108956894BF
:101780000010E894A0E0B0E0E7ECFBE01DC0EFEF54
:10179000E7F959016A015E23550FEE08FE2C870117
:1017A0009B01AC019E23990F660B762FCB0141D094
:1017B000CDB7DEB7EAE024C02F923F924F925F92FE
:1017C0006F927F928F929F92AF92BF92CF92DF9251
:1017D000EF92FF920F931F93CF93DF93CDB7DEB7B6
:1017E000CA1BDB0B0FB6F894DEBF0FBECDBF09944A
:1017F0002A88398848885F846E847D848C849B84A1
:10180000AA84B984C884DF80EE80FD800C811B81AE
:10181000AA81B981CE0FD11D0FB6F894DEBF0FBEDD
:10182000CDBFED010895EE0FFF1F0590F491E02D5F
:101830000994DF93CF939F92A0E49A2E0024D001C5
:10184000E001F00116950795F794E794D794C794B3
:10185000B794A79448F41068A20FB31FC41FD51FF4
:10186000E61FF71F081E191E220F331F441F551FA6
:10187000661F771F881F991F9A9421F79D01AE015B
:10188000BF01C00111249F90CF91DF910895F99974
:10189000FECF92BD81BDF89A992780B50895A6E143
:1018A000B0E044E050E01DC0A8E1B0E042E050E00C
:1018B00018C0262FF999FECF1FBA92BD81BD20BD59
:1018C0000FB6F894FA9AF99A0FBE01960895242F4C
:1018D000F1DF252FEFDF00C0ECDF272FEBCFDC019E
:1018E000CB01FC01F999FECF06C0F2BDE1BDF89A2B
:1018F000319600B40D9241505040B8F70895F894D5
:02190000FFCF17
:101902000083200000010420000001820800000181
:1019120000000000000000000000000100C0D4012F
:0419220000F82401A4
:00000001FF
